:1000000088200020F5060000F1060000F10600003F
:1000100000000000000000000000000000000000E0
:10002000000000000000000000000000F1060000D9
:100030000000000000000000F1060000E1070000E1
:10004000F1060000F1060000F1060000F1060000D4
:10005000A9010000F1060000F1060000F106000011
:10006000F1060000F1060000F1060000F1060000B4
:10007000F1060000F1060000F1060000F1060000A4
:10008000F1060000F1060000F1060000F106000094
:10009000F1060000F1060000F1060000F106000084
:1000A000F1060000F1060000F1060000F106000074
:1000B00010B5064C2378002B07D1054B002B02D03E
:1000C000044800E000BF0123237010BD040000209D
:1000D00000000000C0080000084B10B5002B03D042
:1000E0000749084800E000BF07480368002B00D11B
:1000F00010BD064B002BFBD09847F9E7000000002D
:1001000008000020C0080000C00800000000000037
:100110000C4B1B68002B10D1EFF31083002B09D17F
:1001200072B6BFF35F8F0022074B1A700132074B84
:100130001A7002E00022054B1A70024A136801335C
:1001400013607047200000200000002024000020E1
:10015000084B1A68013A1A601B68002B09D1064B3C
:100160001B78002B05D00122044B1A70BFF35F8F60
:1001700062B670472000002024000020000000200C
:1001800000B583B001A901234B7000228A700B7067
:100190002720034B9847034B80229A6103B000BD90
:1001A000950200008044004170B50022154B1A7082
:1001B00000231F25144E134C1F2B19D90FE00021CB
:1001C00000E012490A619B009B59002B00D0984720
:1001D00023780133DBB223700F2BEDD911E0290016
:1001E000194001228A40002109691142E7D1EFE755
:1001F0002900194001228A40044909691142E0D1CD
:10020000E6E770BD410000204400002000180040D7
:10021000044A117802230B43137053785BB2002B0E
:10022000FBDB70470018004000B583B0124A9169AB
:1002300040230B43936101A900230B7005200F4B52
:10024000984705200E4B98470E4A117801230B431F
:10025000137053785BB2002BFBDB0B4B1900403162
:10026000002204C39942FCD11022084B1A60084BAB
:10027000984703B000BDC04600040040D50500000B
:1002800049050000001800404400002000E100E0A3
:100290001102000000B583B001AB80221A700A7809
:1002A0005A704A789A708A78DA701900014B984728
:1002B00003B000BD9906000070B50C4C236A0178AC
:1002C000857842780120024092014026B3431343CF
:1002D00002002A40D2017F308343134303220A40A5
:1002E000120203490B401343236270BD0008004013
:1002F000FFFCFFFF082803D88000224B1B589F46B5
:1003000017203EE0204A116A02230B4313620020AB
:1003100037E01D4A916902230B439361002030E0CE
:10032000194A118A02230B431382002029E0164A3E
:10033000918A02230B439382002022E0134B196819
:1003400002220A431A601A68114B13400E4A938422
:1003500011001022CB681A42FCD00C4A91680A4B5B
:10036000D96251689962126892B29A84002008E0BA
:1003700005494422885C022303438B54002000E09B
:10038000002070477C080000000800402800002082
:100390007FFF000030B585B0C222D200194B9A60B1
:1003A000194A53681E218B43536001236A46137018
:1003B0000024164DE0B26946A8470134252CF9D136
:1003C00003A800244470012585700470104B9847E1
:1003D0000620104B9847104B9847104B1C725C72CC
:1003E0009C7201956B465C7006236A46137014720A
:1003F0005472694600200A4B98470020094B9847E1
:1004000005B030BD0008004000400041D5050000A7
:10041000B9020000F50200002904000000040040B9
:100420004D04000005050000064A916908230B43AE
:1004300093610122044B1A7019000B781342FCD10E
:100440007047C04600040040000C004070B5060034
:1004500005000C78240204434B78002B02D0802343
:10046000DB021C434B7A002B02D080231B031C436E
:100470004868012818D9431E184210D1022806D90D
:100480000223002201325B009842FBD800E00022E8
:1004900012023243150080235B031C4304E0050273
:1004A000354380239B021C430B7A002B02D0802310
:1004B0009B031C430F4A53785BB2002BFBDB0E4BB4
:1004C00098470E4B1E700B4A53785BB2002BFBDB38
:1004D000084B9D601A0053785BB2002BFBDB054A8A
:1004E000516880235B020B401C435460044B9847C7
:1004F00070BDC046000C004011010000080C004017
:100500005101000010B504000B4A53785BB2002B78
:10051000FBDB0A4B98470A4B1C70074A53785BB2C7
:10052000002BFBDB044A5368802149020B435360D4
:10053000044B984710BDC046000C0040110100005C
:10054000040C00405101000010B50400064B984710
:10055000064B1C70064A51888023DB010B435380F5
:10056000044B984710BDC04611010000020C00402A
:10057000000C00405101000010B504000F4B9847DB
:100580000F4B1C700F4B5A881205100F59880E4ADA
:100590000A405A8059880D4A0A405A801900802220
:1005A000D2014B881342FCD106494C880202064B0B
:1005B000234013434B80064B984710BD11010000A8
:1005C000020C0040000C0040FFF0FFFFFFBFFFFFE8
:1005D0005101000010B50C7824020443024B9847E7
:1005E000A4B2024B5C8010BD79050000000C0040F5
:1005F00030B5D378002B1ED11378802B04D01B0686
:1006000080246402234300E0002354780225AC4395
:100610000AD19478002C03D18024A402234302E061
:10062000C024E402234341605478013C012C12D8D9
:10063000184C23400FE041600B041B0CA024E40580
:10064000234383620B0CD024240623438362D37894
:10065000002B18D01CE00C04240CA025ED052C4325
:100660001C4384620C0CD0252D062C431C43846251
:10067000D478002C0CD15B0305D59378012B01D1E4
:10068000816100E041615378013B012B00D881601A
:1006900030BDC046FFFFFBFF10B503000A00C109D3
:1006A0000020002904D15809C00105498C46604446
:1006B0001F210B401E399940024B984710BDC04680
:1006C00000440041F10500007047C04610B5044BDE
:1006D0009847044B9847044B9847044B984710BDE4
:1006E0009503000081010000C906000029020000F6
:1006F000FEE7C04670B5022190235B002A4AD15024
:100700002A48C3780324A34302221343C370C37847
:100710000C26B34308210B43C370254B987B30252F
:10072000A8430500202028439873987BB0430143D9
:100730009973997BA1430A439A731E4B1E4A9A42AE
:1007400003D01E4B1B4A9A4204D31D4B1D4A9A42AA
:1007500010D31EE01C4A194B03339B1A9B0801332C
:100760009B000022134814498C58845004329A424A
:10077000FAD1EAE7154A124B03339B1A9B0801335F
:100780009B0000220F4800211418216004329A4275
:10079000FAD10F4A7F210F4B8B4393600E4B984742
:1007A0000E4B9847FEE7C0460070004100500041E4
:1007B0000048004100000020C008000004000020A4
:1007C0008400002004000020040000200800002015
:1007D00000ED00E000000000310800000908000002
:1007E000074B8022DA61074B1B78002B03D00022D5
:1007F000044B1A7002E00122024B1A707047C04687
:10080000804400414000002010B5064B9847064B3D
:1008100000221A60054959609A6007321A60002068
:1008200010BDC046CD06000010E000E000350C0011
:100830000E4B70B500251E000D4CE41AA410A54205
:1008400004D0AB00F35898470135F8E700F028F8DA
:10085000084B00251E00084CE41AA410A54204D041
:10086000AB00F35898470135F8E770BDAC080000BD
:10087000AC080000AC080000B00800002003000035
:1008800000030000000300008003000012030000CA
:100890002E030000040300003C030000700300006E
:1008A000F8B5C046F8BC08BC9E467047D9000000A9
:1008B000F8B5C046F8BC08BC9E467047B1000000C1
:0408C0000100000033
:04000003000006F5FE
:00000001FF
